:020000040800F2
:100000002004002001010008450A000851040008EE
:10001000410A00086D0100086D0D00080000000095
:10002000000000000000000000000000F50B0008C8
:100030007101000800000000CD0A0008090D000849
:100040001B0100081B0100081B0100081B01000820
:100050001B0100081B0100081B0100081B01000810
:100060001B0100081B0100081B0100081B01000800
:100070001B0100081B0100081B0100081B010008F0
:100080001B0100081B0100081B0100081B010008E0
:100090001B0100081B0100081B0100087301000878
:1000A0001B0100081B0100081B0100081B010008C0
:1000B0001B0100081B0100081B0100081B010008B0
:1000C0001B0100081B0100081B0100081B010008A0
:1000D0001B0100081B0100081B0100081B01000890
:1000E0001B0100081B0100081B010008DFF80CD0F1
:1000F00000F02AF800480047DD0E00082004002028
:100100000648804706480047FEE7FEE7FEE7FEE7B1
:10011000FEE7FEE7FEE7FEE7FEE7FEE70D0D00085F
:10012000ED00000840EA01039B0703D009E008C97D
:10013000121F08C0042AFAD203E011F8013B00F8AC
:10014000013B521EF9D27047064C074D06E0E068AD
:1001500040F0010394E8070098471034AC42F6D30E
:10016000FFF7C8FF781000089810000800BFFEE7EE
:10017000704710B54FF4807000F018F848B100F0E7
:10018000A7FC4FF4807000F005F84FF4807000F089
:1001900007F810BD014908607047000014040140D1
:1001A0000149086070470000140401400146002026
:1001B0000022074B1B6803EA0102054B14331B683E
:1001C0000B4013B10AB1012000E00020704700008D
:1001D00000040140002123498279002A3AD00A46CE
:1001E000126803689A430B461A600A1D1268036876
:1001F0009A430B1D1A60027911440A6803681A4376
:100200000A60184A0832126803689A43154B08338B
:100210001A601A1D126803689A43124B0C331A6055
:100220004279102A0ED11A1F126803681A430D4B27
:1002300008331A601A1D126803681A43094B0C33FD
:100240001A600DE00749427911440A6803681A43AD
:100250000A6005E0027911440A6803689A430A605B
:10026000704700000004014030B500228B071C0FCE
:100270000F2303FA04F20B4B8C1053F824309343F2
:10028000084C8D1044F8253023468C1053F8243048
:100290008C07240F00FA04F42343024C8D1044F819
:1002A000253030BD080001402DE9F041024600250F
:1002B0000026002000230024002791F803C00CF042
:1002C0000F0591F803C00CF0100CBCF1000F03D027
:1002D00091F802C04CEA050591F800C0BCF1000F8E
:1002E00031D0146800202BE04FF0010C0CFA00F321
:1002F000B1F800C00CEA03069E4220D183004FF003
:100300000F0C0CFA03F7BC4305FA03FC4CEA040497
:1003100091F803C0BCF1280F06D14FF0010C0CFA84
:1003200000FCC2F814C00AE091F803C0BCF1480F09
:1003300005D14FF0010C0CFA00FCC2F810C0401CB3
:100340000828D1D31460B1F800C0BCF1FF0F34DD30
:10035000546800202EE000F1080C4FF0010808FA64
:100360000CF3B1F800C00CEA03069E4221D18300D1
:100370004FF00F0C0CFA03F7BC4305FA03FC4CEAF0
:10038000040491F803C0BCF1280F05D100F1080C5A
:1003900008FA0CF8C2F8148091F803C0BCF1480FB9
:1003A00007D100F1080C4FF0010808FA0CF8C2F868
:1003B0001080401C0828CED35460BDE8F0810000B6
:1003C000F0B50A46002300240021002500F0004675
:1003D000B6F1004F02D11D4EF16901E01B4E71686C
:1003E000C0F3034583B200F44016B6F5401F08D1B0
:1003F00021F07061154E766826F07066134F7E60AE
:1004000012E000F48016B6F5801F06D1032606FA26
:1004100005F4A14341F0706106E0460D360103FA90
:1004200006F6B14341F0706122B1460D360103FA80
:1004300006F6314300F00046B6F1004F02D1034EFC
:10044000F16101E0014E7160F0BD0000000001406B
:1004500000BFFEE70EB50121084600F093FB08211E
:100460000120FFF701FF4FF48070019000208DF80C
:1004700008000C208DF8090001208DF80A0001A861
:10048000FFF7A8FE17208DF8000002208DF801006C
:100490008DF8020001208DF80300684600F0D4FAC0
:1004A0000EBD000008B50121092000F06BFB012101
:1004B0001D48FFF785FF8020ADF8000010208DF863
:1004C000030003208DF8020069461848FFF7ECFE90
:1004D0002020ADF8000069461448FFF7E5FE102023
:1004E000ADF8000069461148FFF7DEFE0820ADF8C0
:1004F000000069460D48FFF7D7FE4020ADF8000028
:1005000048208DF8030069460848FFF7CDFE4FF4F8
:100510008070ADF8000004208DF8030069460348A0
:10052000FFF7C2FE08BD000000023000000C0140D1
:1005300010B5C52000F084F910BD000010B50620EC
:1005400000F07EF93521172000F0FCF9052000F0BD
:1005500079FC062000F074F90321892000F0F2F9FB
:10056000052000F06FFC4321CF2000F0EBF90520BF
:1005700000F068FC0221CB2000F0E4F90B211120EF
:1005800000F0E0F91F480078402810D100211E201B
:1005900000F0D8F90F21192000F0D4F918211B2000
:1005A00000F0D0F92C211D2000F0CCF90FE0002143
:1005B0001E2000F0C7F93F21192000F0C3F948219F
:1005C0001B2000F0BFF91F211D2000F0BBF9052002
:1005D00000F038FC0421CD2000F0B4F94C211720A4
:1005E00000F0B0F9052000F02DFC0021B92000F04A
:1005F000A9F94F21CF2000F0A5F9FF216F2000F0CD
:10060000A1F910BD1C00002010B5012010490860A0
:10061000052000F017FC00200E49C1F88C010520D0
:1006200000F010FC01200A490860052000F00AFCD7
:1006300000200849C1F89001052000F003FC0120CA
:100640000349091D0860052000F0FCFB10BD0000F7
:100650008C8121420080214270B5CAB04FF48C7267
:10066000294904A8FFF75EFD28A30FCB8DE80F00F2
:100670000126002441E000F095F808B900263EE08C
:100680001DF80410C12000F05DF90021C32000F026
:1006900059F90421082000F055F9012000F0D2FB9F
:1006A0000021082000F04EF9012000F0CBFB0025CE
:1006B00012E004EB840004A901EB8000405D00B966
:1006C0000CE004EB840004AA02EB8000415D0520ED
:1006D00000F038F9681CC5B2142DEADB00BF2946CA
:1006E000B92000F02FF9FF21B22000F02BF90421EE
:1006F000372000F027F9601CC4B20E2CBBDB00BF12
:1007000030464AB070BD0000600F000800010203CF
:1007100004050618191A1B1C1D24000010B54321DE
:10072000352000F00FF909211C2000F00BF92021E1
:10073000BD2000F007F90121082000F003F9052091
:1007400000F080FB0021082000F0FCF8052000F0FC
:1007500079FB00F027F808B9002010BDFF21B22076
:1007600000F0F0F80621372000F0ECF8052000F04A
:1007700069FB0621372000F0E5F8052000F062FB58
:100780000B211C2000F0DEF81021292000F0DAF8FF
:100790000021BD2000F0D6F80120DEE710B500F002
:1007A00017F810BD70B5002600250CE0B22000F04F
:1007B00047F80446212C01D1012606E0142000F060
:1007C00041FB681CC5B2052DF0DB00BF304670BD93
:1007D00010B5082019490870FFF7B0FE0021BD20B0
:1007E00000F0B0F84821172000F0ACF8052000F028
:1007F00029FB80213C2000F0A5F807213E2000F0D5
:10080000A1F8FF21382000F09DF807213A2000F0E0
:1008100099F80021402000F095F80821422000F0CE
:1008200091F80021442000F08DF80821462000F0C6
:1008300089F8052000F006FB10BD00001C00002018
:100840002DE9F041054600240026A046052700209A
:100850003A490860012000F01BFB00BF1DE007F0D3
:10086000800020B101203549091D086003E0002007
:100870003249091D0860012000F00AFB00202F49C1
:100880000C3108607806070E012000F001FB012002
:100890002B49C1F89C01601CC4B2082CDFDB00248A
:1008A0001DE005F0800020B101202449091D0860E9
:1008B00003E000202149091D0860012000F0E8FA4A
:1008C00000201E490C3108606806050E012000F06A
:1008D000DFFA01201A49C1F89C01601CC4B2082C3F
:1008E000DFDB012000F0D4FA00241BE07006060EC6
:1008F00012487838006800F0FF08012000F0C8FABC
:1009000000200F49C1F89C01B8F1010F01D146F058
:100910000106012000F0BCFA012008490C310860F2
:10092000601CC4B2082CE1DB012000F0B1FA012008
:10093000024908603046BDE8F08100009081214204
:10094000008021422DE9F04105460E46002404278F
:10095000002039490860012000F09AFA00BF1DE02C
:1009600007F0800020B101203349091D086003E031
:1009700000203149091D0860012000F089FA00209B
:100980002D490C3108607806070E012000F080FA2E
:1009900001202A49C1F89C01601CC4B2082CDFDB8D
:1009A00000241DE005F0800020B101202249091D2E
:1009B000086003E000202049091D0860012000F0C4
:1009C00067FA00201C490C3108606806050E0120FA
:1009D00000F05EFA01201949C1F89C01601CC4B204
:1009E000082CDFDB00241DE006F0800020B1012090
:1009F0001149091D086003E000200F49091D086026
:100A0000012000F045FA00200B490C310860700607
:100A1000060E012000F03CFA01200849C1F89C01B3
:100A2000601CC4B2082CDFDB012000F031FA012089
:100A300001490860BDE8F081908121420080214297
:100A400000BFFEE77047000070B5002100230F22B1
:100A5000C47804B3154C246804F4E064C4F5E0647D
:100A6000210AC1F10403CA40447804FA03F18478EE
:100A70001440214309010E4C0678A155047804F076
:100A80001F050124AC4005786D11AD0005F1E0258E
:100A9000C5F8004109E0047804F01F050124AC40CA
:100AA000044D0678761145F8264070BD0CED00E047
:100AB00000E400E080E100E002490143024A1160E5
:100AC000704700000000FA050CED00E070470000E0
:100AD00010B500242B20FFF7B3FE28490870002131
:100AE0002920FFF72FFF00210220FFF72BFF2348CB
:100AF000007800F01000C8B1B220FFF7A1FE212855
:100B000014D1BF20FFF79CFE35280FD1BA20FFF784
:100B100097FE0446002C05DD042C03DC1020184948
:100B2000087006E011201649087002E011201449EF
:100B3000087000212B20FFF705FF00211C20FFF784
:100B400001FF00212920FFF7FDFE00210220FFF711
:100B5000F9FE00212B20FFF7F5FE0021BA20FFF758
:100B6000F1FE0021BC20FFF7EDFE01210820FFF778
:100B7000E9FE00210820FFF7E5FE10BD1D00002062
:100B80000000002029B1064A92690243044B9A6191
:100B900004E0034A92698243014B9A617047000066
:100BA0000010024070B50024002500BF1DE0FFF7D3
:100BB000F5FD052000F046F9FFF74EFD28B9FFF7D7
:100BC00023FD052000F03EF90DE0052000F03AF984
:100BD000FFF7A4FD28B9FFF717FD052000F032F953
:100BE00001E0012503E0601CC4B2052CDFDB00BF7F
:100BF000284670BD704710B500F002F810BD000027
:100C00000CB50020019000903348006840F480301B
:100C10003149086000BF3048006800F4003000909F
:100C20000198401C0190009818B90198B0F5A06F88
:100C3000F1D12948006800F4003010B10120009083
:100C400001E0002000900098012843D1234800686B
:100C500040F01000214908600846006820F00300B9
:100C600008600846006840F0020008601A484068C2
:100C7000194948600846406848600846406840F4A2
:100C8000806048600846406820F47C104860084650
:100C9000406840F4E81048600846006840F0807002
:100CA000086000BF0C48006800F000700028F9D010
:100CB0000948406820F0030007494860084640683A
:100CC00040F00200486000BF0348406800F00C009C
:100CD0000828F9D10CBD000000100240002002409D
:100CE000042808D14FF0E021096941F004014FF0D8
:100CF000E022116107E04FF0E021096921F00401D1
:100D00004FF0E022116170477047000010B51348A2
:100D1000006840F001001149086008464068104929
:100D200008400E494860084600680E4908400B49D3
:100D300008600846006820F4802008600846406883
:100D400020F4FE0048604FF41F008860FFF753FF57
:100D50004FF000600449086010BD00000010024020
:100D60000000FFF8FFFFF6FE08ED00E000BFFEE721
:100D700018B90121194A11702EE01849097859B3A0
:100D80000021164A117018281DD007DC072821D22F
:100D9000DFE800F020131415161718001C2816D0D1
:100DA00006DC192810D01A280FD01B2812D10DE00C
:100DB0001D280DD024280DD10BE00CE00BE00AE03B
:100DC00009E008E007E006E005E004E003E002E0F7
:100DD00001E000E000BF00BF7047000002000020FB
:100DE00002E008C8121F08C1002AFAD170477047F4
:100DF000002001E001C1121F002AFBD17047000052
:100E000010B56FF00400FFF76BFF0A4800680A494D
:100E1000B0FBF1F0094908700846007800EB40018A
:100E2000C1EBC0104FF6FF7101EAC0000449088011
:100E300010BD00000400002000127A0018000020FD
:100E40001A0000200146114A12884A434FF0E0235D
:100E50005A6100229A611A46126942F001021A612F
:100E600000BF4FF0E022106900F001021AB100F457
:100E70008032002AF5D04FF0E022126922F0010200
:100E80004FF0E0231A6100229A6170471A00002097
:100E90000146114A12784A434FF0E0235A6100227A
:100EA0009A611A46126942F001021A6100BF4FF0BE
:100EB000E022106900F001021AB100F48032002A29
:100EC000F5D04FF0E022126922F001024FF0E0234A
:100ED0001A6100229A61704718000020FFF790FF06
:100EE0004FF4A060FFF7E8FDFFF7DCFAFFF7B2FA76
:100EF000FFF78AFB0020184908702BE0164800789D
:100F0000102815D003DC48B101281DD104E01128B8
:100F10001BD0312818D100E000BF1AE001200E4993
:100F20000870FFF73FFE10B931200B49087010E040
:100F3000FFF7FEFA0949087008460078FFF718FF26
:100F400000200549087004E000BF00200249087035
:100F500000BF00BFD2E70000000000200100002019
:100F60007869616F206A6965000000000000000078
:100F7000000000006E692068616F20796100000048
:100F800000000000000000007A61692067616E20A7
:100F90006D61206E65000000000000006B6169203B
:100FA00064656E67000000000000000000000000A3
:100FB0006775616E2064656E6700000000000000C8
:100FC0000000000074616920616E206C6500000003
:100FD0000000000000000000746169206C69616E0F
:100FE00067206C65000000000000000077656E203F
:100FF00064752064756F207368616F0000000000E5
:101000007368692064752064756F207368616F0070
:10101000000000006461206B61692066656E6720D6
:101020007368616E000000006775616E2062692060
:1010300066656E67207368616E0000006B616920F1
:101040006D656E0000000000000000000000000060
:101050006775616E206D656E000000000000000085
:1010600000000000686F75207475690000000000C2
:1010700000000000000000009810000800000020A0
:1010800020000000E00D0008B8100008200000203B
:1010900000040000F00D00080000000000A24A0457
:1010A0000000000000000000010203040607080918
:0810B000000000000000000038
:0400000508000101ED
:00000001FF
