:020000040800F2
:100000003804002001010008550A000861040008B6
:10001000510A00087D0100087F110008000000005F
:10002000000000000000000000000000F90C0008C3
:100030008101000800000000DD0A0008850E0008AC
:100040001B0100081B0100081B0100081B01000820
:100050001B0100081B0100081B0100081B01000810
:100060001B0100081B0100081B0100081B01000800
:100070001B0100081B0100081B0100081B010008F0
:100080001B0100081B0100081B0100081B010008E0
:100090001B0100081B0100081B0100088301000868
:1000A0001B0100081B0100081B0100081B010008C0
:1000B0001B0100081B0100081B0100081B010008B0
:1000C0001B0100081B0100081B0100081B010008A0
:1000D0001B0100081B0100081B010008E90E0008B5
:1000E0001B0100081B0100081B010008DFF80CD0F1
:1000F00000F032F8004800475D1400083804002082
:100100000648804706480047FEE7FEE7FEE7FEE7B1
:10011000FEE7FEE7FEE7FEE7FEE7FEE7890E0008E2
:10012000ED00000840EA01039B0703D009E008C97D
:10013000121F08C0042AFAD203E011F8013B00F8AC
:10014000013B521EF9D27047421C10F8011B0029D6
:10015000FBD1801A70470000064C074D06E0E068AE
:1001600040F0010394E8070098471034AC42F6D3FE
:10017000FFF7C0FF001600082016000800BFFEE7CA
:10018000704710B54FF4807000F018F848B100F0D7
:10019000A7FC4FF4807000F005F84FF4807000F079
:1001A00007F810BD014908607047000014040140C1
:1001B0000149086070470000140401400146002016
:1001C0000022074B1B6803EA0102054B14331B682E
:1001D0000B4013B10AB1012000E00020704700007D
:1001E00000040140002123498279002A3AD00A46BE
:1001F000126803689A430B461A600A1D1268036866
:100200009A430B1D1A60027911440A6803681A4365
:100210000A60184A0832126803689A43154B08337B
:100220001A601A1D126803689A43124B0C331A6045
:100230004279102A0ED11A1F126803681A430D4B17
:1002400008331A601A1D126803681A43094B0C33ED
:100250001A600DE00749427911440A6803681A439D
:100260000A6005E0027911440A6803689A430A604B
:10027000704700000004014030B500228B071C0FBE
:100280000F2303FA04F20B4B8C1053F824309343E2
:10029000084C8D1044F8253023468C1053F8243038
:1002A0008C07240F00FA04F42343024C8D1044F809
:1002B000253030BD080001402DE9F04102460025FF
:1002C0000026002000230024002791F803C00CF032
:1002D0000F0591F803C00CF0100CBCF1000F03D017
:1002E00091F802C04CEA050591F800C0BCF1000F7E
:1002F00031D0146800202BE04FF0010C0CFA00F311
:10030000B1F800C00CEA03069E4220D183004FF0F2
:100310000F0C0CFA03F7BC4305FA03FC4CEA040487
:1003200091F803C0BCF1280F06D14FF0010C0CFA74
:1003300000FCC2F814C00AE091F803C0BCF1480FF9
:1003400005D14FF0010C0CFA00FCC2F810C0401CA3
:100350000828D1D31460B1F800C0BCF1FF0F34DD20
:10036000546800202EE000F1080C4FF0010808FA54
:100370000CF3B1F800C00CEA03069E4221D18300C1
:100380004FF00F0C0CFA03F7BC4305FA03FC4CEAE0
:10039000040491F803C0BCF1280F05D100F1080C4A
:1003A00008FA0CF8C2F8148091F803C0BCF1480FA9
:1003B00007D100F1080C4FF0010808FA0CF8C2F858
:1003C0001080401C0828CED35460BDE8F0810000A6
:1003D000F0B50A46002300240021002500F0004665
:1003E000B6F1004F02D11D4EF16901E01B4E71685C
:1003F000C0F3034583B200F44016B6F5401F08D1A0
:1004000021F07061154E766826F07066134F7E609D
:1004100012E000F48016B6F5801F06D1032606FA16
:1004200005F4A14341F0706106E0460D360103FA80
:1004300006F6B14341F0706122B1460D360103FA70
:1004400006F6314300F00046B6F1004F02D1034EEC
:10045000F16101E0014E7160F0BD0000000001405B
:1004600000BFFEE70EB50121084600F0A3FB0821FE
:100470000120FFF701FF4FF48070019000208DF8FC
:1004800008000C208DF8090001208DF80A0001A851
:10049000FFF7A8FE17208DF8000002208DF801005C
:1004A0008DF8020001208DF80300684600F0D4FAB0
:1004B0000EBD000008B50121092000F07BFB0121E1
:1004C0001D48FFF785FF8020ADF8000010208DF853
:1004D000030003208DF8020069461848FFF7ECFE80
:1004E0002020ADF8000069461448FFF7E5FE102013
:1004F000ADF8000069461148FFF7DEFE0820ADF8B0
:10050000000069460D48FFF7D7FE4020ADF8000017
:1005100048208DF8030069460848FFF7CDFE4FF4E8
:100520008070ADF8000004208DF803006946034890
:10053000FFF7C2FE08BD000000023000000C0140C1
:1005400010B5C52000F084F910BD000010B50620DC
:1005500000F07EF93521172000F0FCF9052000F0AD
:1005600031FF062000F074F90321892000F0F2F930
:10057000052000F027FF4321CF2000F0EBF90520F4
:1005800000F020FF0221CB2000F0E4F90B21112024
:1005900000F0E0F91F480078402810D100211E200B
:1005A00000F0D8F90F21192000F0D4F918211B20F0
:1005B00000F0D0F92C211D2000F0CCF90FE0002133
:1005C0001E2000F0C7F93F21192000F0C3F948218F
:1005D0001B2000F0BFF91F211D2000F0BBF90520F2
:1005E00000F0F0FE0421CD2000F0B4F94C211720DA
:1005F00000F0B0F9052000F0E5FE0021B92000F080
:10060000A9F94F21CF2000F0A5F9FF216F2000F0BC
:10061000A1F910BD3000002010B50120104908607C
:10062000052000F0CFFE00200E49C1F88C01052006
:1006300000F0C8FE01200A490860052000F0C2FE53
:1006400000200849C1F89001052000F0BBFE012000
:100650000349091D0860052000F0B4FE10BD00002C
:100660008C8121420080214270B5CAB04FF48C7257
:10067000294904A8FFF756FD28A30FCB8DE80F00EA
:100680000126002441E000F095F808B900263EE07C
:100690001DF80410C12000F05DF90021C32000F016
:1006A00059F90421082000F055F9012000F08AFED4
:1006B0000021082000F04EF9012000F083FE002503
:1006C00012E004EB840004A901EB8000405D00B956
:1006D0000CE004EB840004AA02EB8000415D0520DD
:1006E00000F038F9681CC5B2142DEADB00BF2946BA
:1006F000B92000F02FF9FF21B22000F02BF90421DE
:10070000372000F027F9601CC4B20E2CBBDB00BF01
:1007100030464AB070BD0000E81400080001020332
:1007200004050618191A1B1C1D24000010B54321CE
:10073000352000F00FF909211C2000F00BF92021D1
:10074000BD2000F007F90121082000F003F9052081
:1007500000F038FE0021082000F0FCF8052000F031
:1007600031FE00F027F808B9002010BDFF21B220AB
:1007700000F0F0F80621372000F0ECF8052000F03A
:1007800021FE0621372000F0E5F8052000F01AFED2
:100790000B211C2000F0DEF81021292000F0DAF8EF
:1007A0000021BD2000F0D6F80120DEE710B500F0F2
:1007B00017F810BD70B5002600250CE0B22000F03F
:1007C00047F80446212C01D1012606E0142000F050
:1007D000F9FD681CC5B2052DF0DB00BF304670BDC9
:1007E00010B5082019490870FFF7B0FE0021BD20A0
:1007F00000F0B0F84821172000F0ACF8052000F018
:10080000E1FD80213C2000F0A5F807213E2000F00A
:10081000A1F8FF21382000F09DF807213A2000F0D0
:1008200099F80021402000F095F80821422000F0BE
:1008300091F80021442000F08DF80821462000F0B6
:1008400089F8052000F0BEFD10BD0000300000203A
:100850002DE9F041054600240026A046052700208A
:100860003A490860012000F0D3FD00BF1DE007F009
:10087000800020B101203549091D086003E00020F7
:100880003249091D0860012000F0C2FD00202F49F7
:100890000C3108607806070E012000F0B9FD012038
:1008A0002B49C1F89C01601CC4B2082CDFDB00247A
:1008B0001DE005F0800020B101202449091D0860D9
:1008C00003E000202149091D0860012000F0A0FD7F
:1008D00000201E490C3108606806050E012000F05A
:1008E00097FD01201A49C1F89C01601CC4B2082C74
:1008F000DFDB012000F08CFD00241BE07006060EFB
:1009000012487838006800F0FF08012000F080FDF0
:1009100000200F49C1F89C01B8F1010F01D146F048
:100920000106012000F074FD012008490C31086027
:10093000601CC4B2082CE1DB012000F069FD01203D
:10094000024908603046BDE8F081000090812142F4
:10095000008021422DE9F04105460E46002404277F
:10096000002039490860012000F052FD00BF1DE061
:1009700007F0800020B101203349091D086003E021
:1009800000203149091D0860012000F041FD0020D0
:100990002D490C3108607806070E012000F038FD63
:1009A00001202A49C1F89C01601CC4B2082CDFDB7D
:1009B00000241DE005F0800020B101202249091D1E
:1009C000086003E000202049091D0860012000F0B4
:1009D0001FFD00201C490C3108606806050E01202F
:1009E00000F016FD01201949C1F89C01601CC4B239
:1009F000082CDFDB00241DE006F0800020B1012080
:100A00001149091D086003E000200F49091D086015
:100A1000012000F0FDFC00200B490C31086070063D
:100A2000060E012000F0F4FC01200849C1F89C01E9
:100A3000601CC4B2082CDFDB012000F0E9FC0120BF
:100A400001490860BDE8F081908121420080214287
:100A500000BFFEE77047000070B5002100230F22A1
:100A6000C47804B3154C246804F4E064C4F5E0646D
:100A7000210AC1F10403CA40447804FA03F18478DE
:100A80001440214309010E4C0678A155047804F066
:100A90001F050124AC4005786D11AD0005F1E0257E
:100AA000C5F8004109E0047804F01F050124AC40BA
:100AB000044D0678761145F8264070BD0CED00E037
:100AC00000E400E080E100E002490143024A1160D5
:100AD000704700000000FA050CED00E070470000D0
:100AE00010B500242B20FFF7B3FE28490870002121
:100AF0002920FFF72FFF00210220FFF72BFF2348BB
:100B0000007800F01000C8B1B220FFF7A1FE212844
:100B100014D1BF20FFF79CFE35280FD1BA20FFF774
:100B200097FE0446002C05DD042C03DC1020184938
:100B3000087006E011201649087002E011201449DF
:100B4000087000212B20FFF705FF00211C20FFF774
:100B500001FF00212920FFF7FDFE00210220FFF701
:100B6000F9FE00212B20FFF7F5FE0021BA20FFF748
:100B7000F1FE0021BC20FFF7EDFE01210820FFF768
:100B8000E9FE00210820FFF7E5FE10BD310000203E
:100B90000000002029B1064AD2690243044BDA6101
:100BA00004E0034AD2698243014BDA6170470000D6
:100BB0000010024029B1064A92690243044B9A612F
:100BC00004E0034A92698243014B9A617047000036
:100BD0000010024030B500210022002400232D4DDA
:100BE0006D6805F00C0121B1042905D0082923D135
:100BF00005E0294D056022E0274D05601FE0254DE9
:100C00006D6805F47012234D6D6805F4803402257B
:100C100005EB92421CB9214D554305600BE01D4D7B
:100C20006D6805F400351DB11C4D5543056002E0AB
:100C3000194D5543056002E0174D056000BF00BF28
:100C4000144D6D6805F0F0010909154D6B5C0568E0
:100C5000DD4045600F4D6D6805F4E061090A104DF7
:100C60006B5C4568DD4085600A4D6D6805F4605138
:100C7000C90A0B4D6B5C4568DD40C560054D6D686C
:100C800005F44041890B074D6B5CC568B5FBF3F576
:100C9000056130BD0010024000127A0000093D00DD
:100CA0001C0000202C00002070B50024002500BF8F
:100CB0001DE0FFF77BFD052000F084FBFFF7D4FC6F
:100CC00028B9FFF7A9FC052000F07CFB0DE005200A
:100CD00000F078FBFFF72AFD28B9FFF79DFC0520FF
:100CE00000F070FB01E0012503E0601CC4B2052C9C
:100CF000DFDB00BF284670BD70472DE9F0418EB0A4
:100D000080460E46002700243046FFF71DFAC5B284
:100D1000FD208DF8040000208DF80500E81CC0B20D
:100D20008DF8060001208DF8070040EA0810C0B2D7
:100D30008DF8080000BF03E001A8005D4740641C77
:100D4000052CF9D3002402E0305D4740641CAC421E
:100D5000FAD32A4631460DF10900FFF7E3F9681D81
:100D600001A90F54A81DC1B201A800F02DF90EB0C1
:100D7000BDE8F08110B500F001F810BD0CB5002001
:100D8000019000903348006840F480303149086099
:100D900000BF3048006800F4003000900198401C0B
:100DA0000190009818B90198B0F5A06FF1D12948C9
:100DB000006800F4003010B10120009001E0002034
:100DC00000900098012843D12348006840F01000AB
:100DD000214908600846006820F0030008600846C2
:100DE000006840F0020008601A48406819494860ED
:100DF0000846406848600846406840F480604860A3
:100E00000846406820F47C1048600846406840F47A
:100E1000E81048600846006840F08070086000BF35
:100E20000C48006800F000700028F9D009484068BC
:100E300020F00300074948600846406840F002007F
:100E4000486000BF0348406800F00C000828F9D152
:100E50000CBD00000010024000200240042808D110
:100E60004FF0E021096941F004014FF0E0221161E7
:100E700007E04FF0E021096921F004014FF0E02282
:100E8000116170477047000010B51348006840F0CA
:100E900001001149086008464068104908400E49A1
:100EA0004860084600680E4908400B49086008463B
:100EB000006820F4802008600846406820F4FE00A6
:100EC00048604FF41F008860FFF754FF4FF0006048
:100ED0000449086010BD0000001002400000FFF847
:100EE000FFFFF6FE08ED00E010B540F22551044882
:100EF00000F084F818B1024800F03CF9C4B210BD0B
:100F00000048004010B586B0044601210820FFF7D4
:100F100051FE01218804FFF73DFE4FF48060ADF8DB
:100F2000140003208DF8160018208DF8170005A96D
:100F30001C48FFF7C1F94FF40060ADF8140004201D
:100F40008DF8170005A91748FFF7B6F927208DF887
:100F5000000003208DF801008DF8020001208DF8BB
:100F600003006846FFF778FD01940020ADF8080003
:100F7000ADF80A00ADF80C00ADF810000C20ADF88B
:100F80000E0001A9084800F089F8012240F225511D
:100F9000054800F05DF80121034800F023F806B091
:100FA00010BD0000000C01400048004000BF054992
:100FB000098801F040010029F9D00249091D088083
:100FC000704700000048004030B502460B46002440
:100FD00005E012F8010BFFF7E9FF601CC4B29C4268
:100FE000F7DB30BD21B1828942F40052828104E0F6
:100FF00082894DF6FF731A408281704770B50246B0
:10100000002400230025002040F66A16B14200D1DA
:1010100000BFC1F3421501F01F03012606FA03F3D6
:10102000012D02D19689334006E0022D02D1168AA5
:10103000334001E0968A33400C12012606FA04F48C
:101040001688344013B10CB1012000E0002070BDBF
:10105000F0B50346002400260025002040F66A175C
:10106000B94200D100BF1846C1F3421401F01F0677
:10107000012707FA06F5012C01D10C3004E0022CFF
:1010800001D1103000E014301AB107682F43076017
:1010900002E00768AF430760F0BD00002DE9F047AC
:1010A00086B005460E460024A24600BFA146002792
:1010B000B08900B100BF2F462C8A4CF6FF70044067
:1010C000F08804432C82AC894EF6F3100440B088BB
:1010D00031890843718908430443AC81AC8A4FF6D7
:1010E000FF400440B0890443AC8201A8FFF772FDC1
:1010F0001F48874202D1DDF810A001E0DDF80CA006
:10110000A88900F4004040B10AEBCA0000EB0A10C5
:1011100031684900B0FBF1F807E00AEBCA0000EBC8
:101120000A1031688900B0FBF1F86420B8FBF0F0D8
:1011300004012009642101FB1089A88900F4004002
:1011400040B1322000EBC900B0FBF1F000F0070025
:10115000044308E0322000EB09106421B0FBF1F0F9
:1011600000F00F0004432C8106B0BDE8F0870000BA
:101170000038014001468888C0F30800704700BF6E
:10118000FEE7000010B504463CB901202F49087065
:101190002FA10020FFF7B1FD57E02C480078002870
:1011A00053D0002029490870182C35D007DC072CB3
:1011B00049D2DFE804F04813181D22272C001C2C0C
:1011C00036D006DC192C28D01A2C27D01B2C3AD16B
:1011D00029E01D2C31D0242C35D133E022A1002070
:1011E000FFF78BFD30E025A10020FFF786FD2BE007
:1011F00027A10020FFF781FD26E02CA10020FFF7AA
:101200007CFD21E030A10020FFF777FD1CE035A137
:101210000020FFF772FD17E016E015E038A100206E
:10122000FFF76BFD10E03DA10020FFF766FD0BE02E
:1012300041A10020FFF761FD06E044A10020FFF777
:101240005CFD01E000E000BF00BF10BD0200002017
:101250005B7631365D5B6D305D5B74355DD6F7C8AE
:10126000CBA3ACCED2D4DA005B7631365D5B6D3089
:101270005D5B74355DC4E3BAC30000005B76313654
:101280005D5B6D305D5B74355DD4DAD1A7CFB000A6
:101290005B7631365D5B6D305D5B74355DD2D1CE92
:1012A000AAC4E3B4F2BFAAB5C60000005B76395DFC
:1012B0005B6D305D5B74355DD2D1CEAAC4E3B9D825
:1012C000B1D5B5C6000000005B76395D5B6D305D61
:1012D0005B74355DD2D1CEAAC4E3CCE1B8DFC1C125
:1012E000B6C800005B76395D5B6D305D5B74355D63
:1012F000D2D1CEAAC4E3BDB5B5CDC1C1B6C8000038
:101300005B76395D5B6D305D5B74355DD2D1CEAAA5
:10131000C4E3B4F2BFAAB7E7C9C800005B76395D81
:101320005B6D305D5B74355DD2D1CEAAC4E3B9D8B4
:10133000B1D5B7E7C9C800005B76395D5B6D305D3C
:101340005B74355DD2D1BFAAC3C500005B76395D41
:101350005B6D305D5B74355DD2D1B9D8C3C500001B
:1013600002E008C8121F08C1002AFAD1704770476E
:10137000002001E001C1121F002AFBD170470000CC
:1013800010B56FF00400FFF769FD0A4800680A49CC
:10139000B0FBF1F0094908700846007800EB400105
:1013A000C1EBC0104FF6FF7101EAC000044908808C
:1013B00010BD00000400002000127A001800002078
:1013C0001A0000200146114A12884A434FF0E023D8
:1013D0005A6100229A611A46126942F001021A61AA
:1013E00000BF4FF0E022106900F001021AB100F4D2
:1013F0008032002AF5D04FF0E022126922F001027B
:101400004FF0E0231A6100229A6170471A00002011
:101410000146114A12784A434FF0E0235A610022F4
:101420009A611A46126942F001021A6100BF4FF038
:10143000E022106900F001021AB100F48032002AA3
:10144000F5D04FF0E022126922F001024FF0E023C4
:101450001A6100229A61704718000020FFF790FF80
:101460004FF4A060FFF730FB4FF41650FFF74AFD32
:10147000FFF720F8FEF7F6FFFFF7CEF80020184937
:1014800008702BE016480078102815D003DC48B10E
:1014900001281DD104E011281BD0312818D100E00B
:1014A00000BF1AE001200E490870FFF7FDFB10B9DC
:1014B00031200B49087010E0FFF742F80949087025
:1014C00008460078FFF75EFE00200549087004E03A
:1014D00000BF00200249087000BF00BFD2E7000033
:1014E00000000020010000207869616F206A6965B2
:1014F0000000000000000000000000006E6920688D
:10150000616F207961000000000000000000000011
:101510007A61692067616E206D61206E6500000050
:10152000000000006B61692064656E6700000000C8
:1015300000000000000000006775616E2064656EA9
:1015400067000000000000000000000074616920D6
:10155000616E206C650000000000000000000000CB
:10156000746169206C69616E67206C650000000021
:101570000000000077656E2064752064756F20732D
:1015800068616F0000000000736869206475206462
:10159000756F207368616F00000000006461206B4C
:1015A00061692066656E67207368616E00000000E7
:1015B0006775616E2062692066656E672073686179
:1015C0006E0000006B6169206D656E000000000018
:1015D00000000000000000006775616E206D656E00
:1015E000000000000000000000000000686F75208F
:1015F0007475690000000000000000000000000099
:1016000020160008000000203400000060130008CD
:101610005416000834000020040400007013000871
:101620000000000000A24A040000000000000000CA
:101630000102030406070809000000000000000082
:101640000102030401020304060708090204060854
:041650000000000096
:0400000508000101ED
:00000001FF
